:100000000C94EF050C9417060C9417060C94170625
:100010000C9417060C9417060C9417060C941706EC
:100020000C9417060C9417060C94D60C0C94480DDF
:100030000C9417060C9417060C9417060C941706CC
:100040000C9417060C9485110C9417060C94170643
:100050000C9417060C9417060C9417060C940111B7
:100060000C9417060C9417060C9417060C9417069C
:100070000C9417060C9417060C9417060C9417068C
:100080000C9417060C9417060C9417060C9417067C
:100090000C9417060C9417060C9417060C9417066C
:1000A0000C9417060C9417060C94170602090809FD
:1000B0000E091A0926097B097B097B0932093E09C9
:1000C0004A09560964097B096D09AE1FB11FB41FA7
:1000D000B71FBA1FBD1FC01FC31FC61F11101410AA
:1000E000031007100D1035103510351018101C10A6
:1000F000201026102A10351030100101FF030101D5
:10010000F703FE00FA00D5F08D14A1C881CFD9F114
:10011000AF200005008930080238024978681400D1
:100120000045006801000005003801680100001763
:1001300053440016137800161314001510200015F0
:10014000201000540A03E181867F3E186D830F0F53
:100150000E0183866033186DC3198F1803C38E6038
:1001600033186DE330CF1803C39E603630CDE360A3
:10017000CF3006C79E7E3E30CDB360CF300CC6F682
:10018000603330D9B660CF33CFCCF66061B0DB1EC0
:1001900060CF30D86CE6C061B0DB1E618F19986CFF
:1001A000C6C063B19B0E330F0FB078C6FF7E1F1B16
:1001B000061E0F0048300000000000000000000094
:1001C00000000000000000000018100000000800FF
:1001D000001118100001E00800001300300001B009
:1001E0001800001271F38E01B39B38F0121124D362
:1001F0000134DC4C801C332FF301ECDCFD801C331C
:100200006C32030C96C1001CF9E79C03073279009D
:1002100000000000000000000000000000000000DE
:1002200000000000000000000000000000000000CE
:1002300000000000000000000000000000000000BE
:100240000000000000000000000000000000007F2F
:10025000FE0000000000000040020000000000005E
:1002600000480200000000000000540200000000EE
:100270000000005C020000000000000054021800B2
:100280002010800000540223337330CA0000400263
:1002900022652650AE000040821A332330C200008F
:1002A00041C2000000000C000043E200000000001A
:1002B000000047F222A006043000004FFA362985DC
:1002C00034293B904FFA2AB3056432912846B22272
:1002D000A98634213B9040820000000000000041CC
:1002E000C20000000000000043E200000000000027
:1002F000004002000000000000007FFE000000003F
:1003000000000000000000000000000000000000ED
:1003100000000000000000000000000000000000DD
:1003200000000000000000000000000000000000CD
:1003300000000000000000000000000000000000BD
:1003400000000000000000000000000000000000AD
:10035000000000000000000000000000000000009D
:1003600000000000000003053F213F1208120A10A0
:100370000A0E1C0E0C1E0C141A14161F161E131E29
:100380001E1B1E1E1F1E3F213F3A2F3A173D173FCF
:10039000213F181F02040A041F0E04040E1F0A1F27
:1003A0000A0E0E1F04110E2E252E2F2A2E26292965
:1003B000021F02081F08150E04040E150E15151B4A
:1003C000151B040604040C040000000017000300C1
:1003D000031F0A1F16371A1904130A153A000300DF
:1003E000000E11110E000A040A040E04003000046D
:1003F00004040010001804031F111F121F101D1504
:100400001711151F07041F17151D1F151D01011FAB
:100410001F151F17151F000A00003200040A110AD9
:100420000A0A110A040115020E11171E051E1F15D6
:100430000A0E110A1F110E1F15111F05010E111DA5
:100440001F041F111F1108100F1F041B1F10101F66
:10045000061F1E040F0E110E1F09060E112E1F057A
:100460001A121509011F011F101F0F180F1F0C1F53
:100470001B041B031C03191513001F11030418117F
:100480001F000201022020200001020C121E1F1278
:100490000C0C12120C121F0C1A14041E05242A1E16
:1004A0001F021C141D1020201D1F0814111F101ED8
:1004B000041E1E021C0C120C3E0A040C123E1E04EA
:1004C0000214160A020F120E101E0E100E1E081E27
:1004D000120C1226281E322A26041E21001F00217B
:1004E0001E040102013F213F686F6C640003030793
:1004F00005070504050504050306030207020201BA
:10050000020203020E090E0E0D0E0E0F0E07050756
:10051000050307050F050705070607010205020089
:100520000702020700020702000207020007060393
:100530000607070202050502010202040200050285
:100540000205000607050507050203020206020070
:100550000000000B00030003070507040701050264
:10056000050707040003000007050507000500054F
:10057000020702000C00020202000400040201074C
:10058000050705070401070405070203020704071E
:100590000107060601010707070703030700050017
:1005A000000D000205000505050005020107030F07
:1005B00009030603060707020205050707020707E6
:1005C00005070301070506070207050705040403DD
:1005D00007020507040407030707010607050707C5
:1005E00003030705030703060407010107010704C6
:1005F00007030403070607050205010601010704B6
:1006000000070501020405070002010208080800AE
:100610000300060306070702020505070502070790
:10062000050703010705060702070507050404037C
:100630000702050704040703070701060705070764
:100640000303070503070306040701010701070465
:100650000703040307060705020501060101070455
:100660000207050007000507020602030705071831
:100670001E0000007FFFE0400020400020400020DE
:10068000400020400020400020400020400020404A
:1006900000204000204000204000204020204070EA
:1006A0002040F82041FC2043FE2043FE2041AC20A6
:1006B00040202040702040F8204000204000204092
:1006C00000204000207FFFE0000000181E00000016
:1006D0007FFFE040002040002040002040002040FC
:1006E000002040002040002040002040002040002A
:1006F0002040002040002040002041DC2043FE201C
:1007000043FE2043FE2041FC2040F8204070204062
:1007100020204000204000204000204000204000D9
:10072000207FFFE0000000181E0000007FFFE04077
:1007300000204000204000204000204000204000D9
:1007400020400020400020400020400020400020A9
:1007500040002040002040202040702040F82041F0
:10076000FC2043FE2041FC2040F820407020402027
:10077000204000204000204000204000207FFFE07B
:10078000000000181E0000007FFFE0400020400035
:100790002040002040002040002040002040002059
:1007A0004000204000204000204000204000204029
:1007B000702040F82040F82040702041FC2043FE8B
:1007C0002043FE2043FE2041AC204070204000200A
:1007D0004000204000204000207FFFE0000000415A
:1007E000004B0051004A00181E0000007FFFE06A25
:1007F000AAA05555606AAAA05555606AAAA0555589
:10080000606AAAA05555606AAAA05555606AAAA058
:100810005555606AAAA05555606AAAA05555606AE8
:10082000AAA05555606AAAA05555606AAAA0555558
:10083000606AAAA05555606AAAA05555607FFFE07E
:10084000000000181EFFFFF08000108000108000E4
:1008500010800010800010800010800010800010B8
:100860008000108000108000108000108000108038
:1008700000108000108000108000108000108000A8
:100880001080001080001080001080001080001088
:10089000800010800010800010800010FFFFF0200A
:1008A000576F6E202400426574202400526F7961D6
:1008B0006C20666C75736821005374726169676897
:1008C0007420666C7573682100466F7572206F66C0
:1008D0002061206B696E64210046756C6C20486F46
:1008E0007573652100466C757368210053747261DD
:1008F0006967687421005468726565206F662061BD
:10090000206B696E64210054776F207061697221D9
:10091000004A61636B73206F722062657474657244
:100920002100413A486F6C642020423A447261775A
:100930000055702F446F776E3A4265742020423A1A
:100940004465616C00204265743A20240042616E67
:100950006B3A202400423A204E65772047616D654E
:1009600000413A205469746C652053637265656E6A
:1009700000472041204D204520204F205620452073
:100980005200202020202020202020202020202055
:1009900020202020202020202020423A2042616375
:1009A0006B004A61636B73206F72204265747465DB
:1009B000723A2031202A204265740054776F20500B
:1009C0006169723A2032202A2042657400546872AC
:1009D0006565206F662061204B696E643A20332084
:1009E0002A204265740053747261696768743A2002
:1009F00034202A2042657400466C7573683A2036AC
:100A0000202A204265740046756C6C20486F75730F
:100A1000653A2039202A2042657400466F7572209D
:100A20006F662061204B696E643A203235202A209F
:100A300042657400537472616967687420466C750E
:100A400073683A203530202A2042657400526F794D
:100A5000616C20466C7573683A20323530202A204C
:100A600042657400442D5061643A20526573756D7F
:100A7000652047616D6500423A2053686F772048D2
:100A8000616E6420496E666F00413A205469746C4F
:100A9000652053637265656E0050204120552053D8
:100AA0002045204400080B00020202010009040056
:100AB00000010202000005240010010524010101CB
:100AC00004240206052406000107058103100040E6
:100AD00009040100020A00000007050202400000AC
:100AE000070583024000000403090412010002EF1D
:100AF000020140412336800001010203014172647A
:100B000075696E6F204C4C430041726475696E6F5D
:100B1000204C656F6E6172646F000000000024005D
:100B200027002A002D0030000000000025002800CA
:100B30002B002E003100F6E8DBCFC3B8AEA49B92A9
:100B40008A827B746E68625C57524E4945413E3AD8
:100B50003734312E2C29272523211F1D1C1A191744
:100B6000161514131211100F0E0D0C0B0A0908079D
:100B700006000000002300260029002C002F00049E
:100B80000404040403040502020202040302020234
:100B9000020606060606060404020202040404080D
:100BA0000201104080401020408040800802040173
:100BB00080402010020110801020404020000000E2
:100BC0000200090F0000030401000C0000000000F7
:100BD000000000000000000000000000AE22112410
:100BE0001FBECFEFDAE0DEBFCDBF12E0A0E0B1E084
:100BF000EAEFFBE402C005900D92A631B107D9F7E8
:100C000028E0A6E1B2E001C01D92A233B207E1F7ED
:100C100015E0CFEED5E004C02197FE010E94F52536
:100C2000CE3ED107C9F70E94721B0C94FB250C9491
:100C30000000089580E090E008952F923F924F9237
:100C40005F926F927F928F929F92AF92BF92CF925C
:100C5000DF92EF92FF920F931F93CF93DF938091D8
:100C600037039091380383309105B1F054F481300B
:100C7000910569F00297C1F423E438E042E16EE1A6
:100C80000FC08430910589F10597A1F10DC023E4CF
:100C900038E042E166E004C023E438E042E166E384
:100CA00084EB97E00E94CB110DE213E0C0E0D0E0AE
:100CB00046E0342E5DEE452E54E0552E6EEE662E47
:100CC00064E0762E7FEEE72E74E0F72EE2E32E2E20
:100CD000F6E6CF2EF3E0DF2EA7E6AA2EA3E0BA2E8B
:100CE000B8E68B2EB3E09B2E3AC023E438E042E115
:100CF0006EE4D6CF23E438E042E166E6D1CF8381CB
:100D00009481181619068CF501979483838327EE36
:100D100037E042E1632D84EB97E00E94CB11D801CC
:100D2000ED91FC9183819481019721F481E191E01F
:100D30000E9474182196C530D10509F49DC0C330B6
:100D4000D10509F490C0C430D10509F48FC0C23078
:100D5000D10509F08EC036E3332E0E5F1F4FD80148
:100D6000ED91FC91309759F675C0B6E1B093BE078E
:100D700084E0830D8093BD0761816B30C8F06C30D7
:100D800069F028F46B30D1F465EE77E009C06D307E
:100D900061F06E3099F46FED77E002C063EE77E0BA
:100DA00084EB97E00E94AC0F09C061EE77E0F8CFCA
:100DB00070E080E090E04AE00E94B918D801ED911F
:100DC000FC918081813059F038F0823059F08330C5
:100DD00089F42FE636E008C023E837E005C027E2B3
:100DE00037E002C02BEC36E042E1632D84EB97E064
:100DF0000E94CB11D801ED91FC918281823009F0E3
:100E000099CFF20184918F5F8093BB07F3018491A6
:100E10008F5F8093BC07F092C207E092C1072092D7
:100E2000BE07339433943092BD0768EE74E084EBD0
:100E300097E00E94AC0FF60184918F5F8093BB070F
:100E4000F50184918F5F8093BC079092C2078092D6
:100E5000C10770CF27EE37E042E1632D84EB97E0C6
:100E60000E94CB1167CF2EE4322E77CF96E6392E33
:100E700074CF8EE1382E71CFDF91CF911F910F91FA
:100E8000FF90EF90DF90CF90BF90AF909F908F90AA
:100E90007F906F905F904F903F902F9008950F93A9
:100EA0001F93CF9380E090E00E941125182F81E0DE
:100EB00090E00E941125C82F82E090E00E94112549
:100EC000082F83E090E00E9411254C2F50E060E055
:100ED00070E0762F652F542F4427410F511D611D5F
:100EE000711D10E020E030E0980111270027400F2D
:100EF000511F621F731F90E0A0E0B0E0B82FAA2737
:100F000099278827840F951FA61FB71F8530910545
:100F1000A105B10524F484E690E0A0E0B0E0809360
:100F2000390390933A03A0933B03B0933C0385E0CD
:100F300090E090933E0380933D0310922C03109217
:100F40002B031092400389E090E090932402809359
:100F50002302109218021092170210922A03109284
:100F60002903E7E2F2E020E030E040E00DE010E0AD
:100F7000DF0112974C93C901B8010E94E125DF01FE
:100F8000119752E0580F5C931082128211820C97D5
:100F900009F44F5F2F5F3F4F35962433310541F7FA
:100FA0000E94D51410923F03CF911F910F91089585
:100FB0008F929F92AF92BF92CF92DF92EF92FF9269
:100FC0000F931F93CF93DF9382E38093DA0781E03F
:100FD00090E0A0E0B0E08093D3079093D407A09373
:100FE000D507B093D607C1E0C0939107C09390078F
:100FF0008FEF8093D90784E18093700782E180931B
:10100000710783E18093720785E18093730787E01E
:101010008093740788E080937507109276070E948A
:10102000CA1AC093C3071092C407C093B907C093EC
:10103000BA07E6E6F3E0E491EF5FE093BB07E7E68B
:10104000F3E0E491EF5FE093BC0788E693E09093D0
:10105000C2078093C107CFB7F8948091160281111F
:1010600027C0E0E9FBE08491EFEAFBE09491E82FF0
:10107000F0E0EE0FFF1FE65EF44FA591B491EC9106
:10108000E92321F461E081E10E94361061E081E111
:101090000E9466108CB580618CBD8CB580648CBD5F
:1010A00061E08FE00E94661061E080E10E946610BE
:1010B000809116028F5F80931602CFBF8CB58C7F14
:1010C0008CBD8DB581608DBD61E084E00E946610AD
:1010D00061E08CE00E94661061E086E00E9466108C
:1010E00061E086E00E94361061E070E080E090E010
:1010F0000E94C71060E086E00E9436106AE070E04F
:1011000080E090E00E94C71061E086E00E94361007
:10111000EBE8FBE0E491F0E0EE0FFF1FE85DF44F39
:10112000859194919093C6078093C507E3E8FBE00F
:10113000E491F0E0EE0FFF1FE85DF44F859194918C
:101140009093C8078093C707EAEAFBE0E491E09335
:10115000C907E2EAFBE0E491E093CA070E94A91AFA
:10116000C6E0D1E01C2F135FFE0184910E9465143C
:1011700021961C13F9CFE091C707F091C807908121
:101180008091CA07892B8083E091C507F091C6073B
:1011900090818091C907809589238083C0E0D4E045
:1011A00080E00E9465142197D9F781E080938F0732
:1011B00084E08093B30782E091E090939B07809353
:1011C0009A0740E060E08BE897E00E944B1161E0F5
:1011D00085E00E94661061E08DE00E94661061E08B
:1011E00085E00E946610E2ECFBE0E4918E2F90E037
:1011F000FC013197EF30F10508F07DC0EA5AFF4F4E
:101200000C94F52584B5806884BD81E087BD77C0E6
:1012100084B5806284BD81E088BD71C0809180000A
:1012200080688093800081E090E0909389008093B3
:10123000880065C08091800080628093800081E09A
:1012400090E090938B0080938A0059C08091800039
:1012500088608093800081E090E090938D0080937F
:101260008C004DC08091900080688093900081E058
:1012700090E0909399008093980041C080919000F5
:1012800080628093900081E090E090939B00809337
:101290009A0035C08091900088608093900081E032
:1012A00090E090939D0080939C0029C08091C000A5
:1012B00080688093C0008091C0008F7B8093C000C5
:1012C00081E08093CF001BC08091C000806280933A
:1012D000C00081E08093D00012C08091C20088607D
:1012E0008093C2008091C2008B7F8093C20081E016
:1012F0008093D20004C060E085E00E9436108091A7
:101300009100887F816080939100F8941092800012
:1013100010928100109285001092840088E191E083
:1013200090938900809388008091810088608093E9
:1013300081008091810081608093810080916F00A5
:10134000826080936F00789480917807813091F467
:101350005C9885EA8EBD00000DB407FEFDCF5C9A57
:101360008091640080628093640081E083BF8895EF
:1013700013BEFCCF80917C07813019F41092900746
:1013800019C080E00E942D1983E191E090939907A4
:101390008093980710929E0710929D0781E080939A
:1013A0008C0789E08093A1071092A4071092A607EA
:1013B0001092A8078091D907882309F4F0C01092F1
:1013C0007E0781E08093BA071092B9071092B807A0
:1013D0008093C3078093C407C3EBD1E001E211E01F
:1013E00089E0F82E0E9402158823E1F3FE01849122
:1013F000882319F0E090BC0701C0E12C23E431E020
:1014000040E060E284EB97E00E94CB1140E14E0D9A
:1014100024EB31E060E184EB97E00E94CB1180E1A6
:101420008093BD078093BE0763EB71E084EB97E088
:101430000E94AC0F8091BB07982F990F890F81955F
:1014400081588093BD078091BC07982F990F890F11
:101450008195835C8093BE078091CB0784FF03C096
:101460006FE371E002C06BE371E084EB97E00E94F0
:10147000E50F8091BB07982F990F890F81958158AF
:101480008093BD078091BE078F5F8093BE078091D8
:101490009007882319F067E371E002C063E371E00D
:1014A00084EB97E00E94E50F8091BB07982F990F7E
:1014B000890F819581588093BD078091BE078F5F0A
:1014C0008093BE076FE271E084EB97E00E94E50F26
:1014D000E0907C07F1E0EF1224C0809190078F5FCD
:1014E000082E000C990B6091910770E06F5F7F4FA1
:1014F0000E94E1258093900780E00E942D191093AF
:1015000099070093980710929E0710929D07E0920A
:101510008C07F092A1071092A4071092A6071092D0
:10152000A80780917B078130B9F08091D907482FB7
:1015300050E060E070E08090CB079090CC07A090E6
:10154000CD07B090CE0784169506A606B70608F418
:1015500049CF8F3F09F446CF8FEF8093D90780E0C2
:101560000E942D1910928C0780E00E942D1987E2AD
:1015700091E0909399078093980710929E0710929C
:101580009D0781E080938C0799E09093A1071092CA
:10159000A4071092A6071092A80780937E07809157
:1015A00064008E7F8093640087EC80937C0080E2EF
:1015B00080937B0062E070E080E090E00E94C710C2
:1015C00080917A00806480937A0080917A0086FD11
:1015D000FCCFC0917800D0917900C095D0958EE570
:1015E00080937C0062E070E080E090E00E94C71091
:1015F00080917A00806480937A0080917A0086FDE1
:10160000FCCF00917800109179000E94A2109B01FC
:10161000AC012095309540955095009510950C9F04
:10162000D0010D9FB00D1C9FB00D11240E945A25B2
:101630006B017C010E94A2106C0D7D1D8E1D9F1DF3
:10164000611571058105910511F00E9408258091B1
:101650006400816080936400DF91CF911F910F91AE
:10166000FF90EF90DF90CF90BF90AF909F908F90C2
:101670000C944F07CF93DF931F92CDB7DEB76983EA
:10168000DC01ED91FC910280F381E02D41E050E01E
:10169000BE016F5F7F4F09950F90DF91CF91089545
:1016A00083E08093E9008091F200882319F08AE3B7
:1016B0008093E8000895FC018485958597FD0BC013
:1016C0009FB7F89482E08093E9008091F2009FBF79
:1016D00090E0019608959FB7F89482E08093E90026
:1016E0008091F2009FBF90E008958F929F92AF92F9
:1016F000BF92CF92DF92EF92FF920F931F93CF93FF
:10170000DF935C016B017A0180910B01882309F45E
:101710005BC080915003882309F456C08091470331
:1017200080FF05C08091E00082608093E000E701C7
:1017300010E00AEF83E0882E9AE3992E2097D9F1E2
:101740000E944F1881110AC0015009F43DC061E0A8
:1017500070E080E090E00E94C710F0CF282F30E0CA
:10176000C217D3070CF48C2F4FB7F8948092E9007E
:101770009091E80095FF1DC0282F30E0C21BD30BCD
:10178000F601982F915020F081918093F100FACFCB
:10179000C20ED31E112319F09092E80009C0809167
:1017A000E80085FD06C09092E80011E0209709F05E
:1017B00010E04FBFC3CF1111C3CF5D9884E6809373
:1017C00048031E141F0444F081E090E0F501938368
:1017D000828380E090E001C0C701DF91CF911F912B
:1017E0000F91FF90EF90DF90CF90BF90AF909F90C0
:1017F0008F9008950E944F1890E00895CF93DF9343
:101800001F92CDB7DEB7FC018485958597FD05C095
:101810002FEF3FEF358724870BC0CE0101960E9442
:101820002518019719F4898190E002C08FEF9FEF8E
:101830000F90DF91CF9108950F931F93CF93DF9374
:101840001F92CDB7DEB78C01FC018485958597FF8B
:101850000EC0CE0101960E942518019719F4298126
:1018600030E002C02FEF3FEFF80135872487F80101
:10187000848595850F90DF91CF911F910F910895E9
:10188000CF92DF92EF92FF920F931F93CF93DF934C
:101890001F92CDB7DEB7182F062FE42E862F880FA4
:1018A0008E5F99830E94371B83E00E94371BF12EC5
:1018B000C12E9981D92E8C2D8F19801798F4F6019D
:1018C000E7FE02C0849101C080810E94371B182F5F
:1018D00080E00E94371B8123FFEFCF1ADF0A8111BE
:1018E000EACF01C081E00F90DF91CF911F910F915E
:1018F000FF90EF90DF90CF900895DF92EF92FF92EC
:101900000F931F93CF93DF93D82E8A017B01E40EB0
:10191000F51EEB01CE15DF0571F0D7FE03C0FE0109
:10192000849101C088810E94371B21968111F2CFDA
:101930008FEF9FEF01C0C801DF91CF911F910F91F1
:10194000FF90EF90DF9008950F931F93CF93DF9355
:101950001F92CDB7DEB782E0898342E450E065EAAA
:101960007AE080E80E947D0C0E946018DC011296EB
:101970000D911C9113970115110569F0D801ED9196
:10198000FC910280F381E02DBE016F5F7F4FC801A3
:10199000099597FF07C089810F90DF91CF911F9123
:1019A0000F910895F80100851185E5CF1F920F92E0
:1019B0000FB60F9211248F939F938091E100909125
:1019C000E100937F9093E10083FF0FC01092E90044
:1019D00091E09093EB001092EC0092E39093ED0075
:1019E0001092500398E09093F00082FF20C093E0A3
:1019F0009093E9009091F200992319F09AE3909363
:101A0000E80090914803992339F090914803915050
:101A100090934803992389F190914F03992339F0CA
:101A200090914F03915090934F03992341F184FF7C
:101A300010C08091E2008E7E81608093E2008091F0
:101A4000E1008F7E8093E100809147038E7E80616C
:101A500011C080FF16C08091E2008E7E806180936D
:101A6000E2008091E1008E7E8093E1008091470347
:101A70008E7E81608093470304C05D9ACDCF289A03
:101A8000D6CF9F918F910F900FBE0F901F901895FA
:101A90001F920F920FB60F921124CF92DF92EF9206
:101AA000FF920F931F932F933F934F935F936F93E7
:101AB0007F938F939F93AF93BF93EF93FF93CF93B6
:101AC000DF93CDB7DEB76C97DEBFCDBF1092E900D4
:101AD0008091E80083FFEDC168E0CE0145960E9449
:101AE000651B82EF8093E8008D8987FF05C0909188
:101AF000E80090FFFCCF03C09EEF9093E800982F82
:101B0000907609F0C6C09E892F89188D91110CC05E
:101B1000803829F4809146038093F10002C010922E
:101B2000F1001092F10048C1422F50E0512B91304A
:101B300051F4811141C14130510509F03DC18091FD
:101B400046038D7F0BC0933061F4811135C1413064
:101B5000510509F031C180914603826080934603AC
:101B60002BC1953041F48091E80080FFFCCF2068C4
:101B70002093E30021C1963009F05FC0EB8CFC8C10
:101B80001092E9001092440310924303123091F531
:101B900010924203109241030E94A40C99E0BE01EE
:101BA0006F5F7F4FDB01E92F1D92EA95E9F799837B
:101BB0001A8391E09E8390EA98879AEF9987209103
:101BC000430330914403275F3F4F3C832B838D8336
:101BD0001092E9001092440310924303F0924203E2
:101BE000E092410349E050E080E00E947D0C0E94B9
:101BF000A40CE2C0F0924203E09241030E946018FC
:101C0000DC011296ED90FC901397E114F10409F4B5
:101C1000C0C0D701ED91FC910480F581E02DBE019B
:101C20006B5E7F4FC7010995009719F00CF0C4C097
:101C3000C7C0F701E084F184E8CF973009F4C0C051
:101C4000983021F481E08093F100B6C0993009F01A
:101C5000B3C0837009F0B4C0EEEEF1E081E021E0A2
:101C600036E39081992361F08093E9002093EB00A3
:101C700091919093EC003093ED008F5F873089F75E
:101C80008EE78093EA001092EA008F8980935003D8
:101C900093C08B8D9C8D1092E9001092440310929A
:101CA00043039093420380934103898D811156C071
:101CB0008E899D89913A59F4813209F081C047E0BB
:101CC00050E064E071E080E00E947D0C75C09132CC
:101CD00009F076C0833289F4888D90E0982F8827A8
:101CE0002F89822BA0E0B0E0809300019093010146
:101CF000A0930201B09303015FC0803269F4809128
:101D0000E80082FFFCCF67E084E091E00E94651B61
:101D10008BEF8093E80006C0823209F04DC08F89B6
:101D200080930B0180914503882319F0EEEFFAE0D0
:101D300002C0E0E0F8E08091040190910501A091DB
:101D40000601B0910701803B9440A105B10509F05F
:101D50007BC080910B0180FF93C076C00E94601809
:101D6000DC0112960D911C9113970115110541F19B
:101D7000D801ED91FC910190F081E02DBE016B5EE8
:101D80007F4FC8010995811117C0F80100851185A1
:101D9000ECCF113009F44EC0133091F48F898823B1
:101DA00009F445C0823081F440E860E189E09BE0BD
:101DB0000E94400C882321F08EEF8093E80079C0C8
:101DC00081E28093EB0075C0813029F440E86BE03C
:101DD0008DEF9AE0EDCF833099F70E946018DC0117
:101DE0001296ED90FC9013978E010F5F1F4F6801C4
:101DF000E114F10479F0D701ED91FC910680F781AF
:101E0000E02DB801C7010995080F111DF701E08405
:101E1000F184EECFD8011C92F60101900020E9F781
:101E20003197BF016C197D0940E0C601C1CF67EE53
:101E30007AE002C06BEE7AE06115710509F2FB01F0
:101E4000449150E080E840CF0FB6F894A895809177
:101E50006000886180936000109260000FBEA895BA
:101E6000EE3F2AE0F20739F08091FE0A9091FF0AD6
:101E700091838083A1CF1092FF0A1092FE0A9CCF1B
:101E8000EE3F8AE0F80731F0808191819093FF0A5C
:101E90008093FE0A87E797E7918380839BE088E140
:101EA0000FB6F894A895809360000FBE90936000E1
:101EB00083CF6C960FB6F894DEBF0FBECDBFDF9117
:101EC000CF91FF91EF91BF91AF919F918F917F91B2
:101ED0006F915F914F913F912F911F910F91FF90C3
:101EE000EF90DF90CF900F900FBE0F901F9018953E
:101EF000CF92DF92EF92FF920F931F93CF93DF93D6
:101F00006C017A018B01C0E0D0E0CE15DF0589F0CD
:101F1000D8016D918D01D601ED91FC910190F08178
:101F2000E02DC6010995892B11F47E0102C021968E
:101F3000ECCFC701DF91CF911F910F91FF90EF90F0
:101F4000DF90CF900895FC0180819181FB01208179
:101F50003181821B930B0895EF92FF920F931F9391
:101F6000CF93DF938C017B01C0E0D0E0F701EC0F51
:101F7000FD1F6491662361F0D801ED91FC91019001
:101F8000F081E02DC8010995892B11F02196EECF43
:101F9000CE01DF91CF911F910F91FF90EF900895A7
:101FA0006115710579F0FB0101900020E9F7319787
:101FB000AF01461B570BDC01ED91FC910280F381D0
:101FC000E02D099480E090E008950F931F93CF9344
:101FD000DF93EC010E94AC0F8C0162E172E0CE0154
:101FE0000E94D00F800F911FDF91CF911F910F9111
:101FF000089590E0FC013197EF30F105B0F5E2591A
:10200000FF4F0C94F525809180008F7703C080915D
:1020100080008F7D80938000089580918000877F6D
:10202000F9CF84B58F7702C084B58F7D84BD0895C4
:10203000809190008F7707C0809190008F7D03C0C2
:1020400080919000877F8093900008958091C000D8
:102050008F7703C08091C0008F7D8093C00008956A
:102060008091C200877F8093C20008951F93CF9311
:10207000DF93282F30E0F901E354F44F8491F90104
:10208000E256F44FD491F901E158F44FC491CC23B6
:10209000C9F0162F81110E94F90FEC2FF0E0EE0F1E
:1020A000FF1FE85DF44FA591B4918FB7F89411111B
:1020B00005C09C91ED2FE095E92302C0EC91ED2B3A
:1020C000EC938FBFDF91CF911F910895CF93DF9352
:1020D00090E0FC01E256F44F2491FC01E158F44FEA
:1020E0008491882361F190E0880F991FFC01E65EDE
:1020F000F44FC591D491FC01E85DF44FA591B491E2
:10210000611109C09FB7F894888120958223888344
:10211000EC912E230BC0623061F49FB7F8943881A4
:10212000822F809583238883EC912E2B2C939FBF45
:1021300006C08FB7F894E8812E2B28838FBFDF91DC
:10214000CF9108953FB7F89480914B0390914C0341
:10215000A0914D03B0914E0326B5A89B05C02F3F1B
:1021600019F00196A11DB11D3FBFBA2FA92F982FBD
:102170008827820F911DA11DB11DBC01CD0142E038
:10218000660F771F881F991F4A95D1F708958F9280
:102190009F92AF92BF92CF92DF92EF92FF926B012C
:1021A0007C010E94A2104B015C01C114D104E10426
:1021B000F104F1F00E94A210DC01CB018819990909
:1021C000AA09BB09883E9340A105B10570F321E03F
:1021D000C21AD108E108F10888EE880E83E0981E43
:1021E000A11CB11CC114D104E104F10419F7DDCF25
:1021F000FF90EF90DF90CF90BF90AF909F908F9027
:1022000008951F920F920FB60F9211242F933F93B0
:102210008F939F93AF93BF938091530790915407EF
:10222000A0915507B091560730914A0323E0230F40
:102230002D3720F40196A11DB11D05C026E8230FFE
:102240000296A11DB11D20934A03809353079093DA
:102250005407A0935507B093560780914B03909174
:102260004C03A0914D03B0914E030196A11DB11DE9
:1022700080934B0390934C03A0934D03B0934E0374
:10228000BF91AF919F918F913F912F910F900FBE72
:102290000F901F90189550E0DA01AA0FBB1FA80FEE
:1022A000B91F1F963C911F9750962C915097E32F82
:1022B000F22FE60FF11DE60FF11D659174919096D6
:1022C0007C936E935F97FB0125913491FC013481DF
:1022D000329F202D1124DC01A40FB51F91962C9361
:1022E0009197FB0185919491E92FF0E0822F90E086
:1022F000E817F90720F4FB0185919491292F239F7A
:10230000202D112492962C9308951F920F920FB6B0
:102310000F9211242F936F937F938F939F936091CC
:102320006307662371F1809149038F5F80934903AE
:1023300090915103891728F12091650781E02827A2
:10234000209365071092490380915203882369F016
:1023500080910C0193E4899F802D1124895B8093E7
:102360000C010E94D52590936407222341F08091AF
:10237000640790E0909399008093980002C080E0F9
:10238000F8CF9F918F917F916F912F910F900FBEFA
:102390000F901F9018953F924F925F926F927F928D
:1023A0008F929F92AF92BF92CF92DF92EF92FF9265
:1023B0000F931F93CF93DF93F901C49031965491FB
:1023C000EC013F8440340CF01BC10C2C000CDD08E8
:1023D000A62F062E000CBB0B7D01EC0CFD1C1E1461
:1023E0001F040CF00DC1A52E842E042E000C99089C
:1023F000F401E50FF11D57FDFA951E161F060CF0AE
:10240000FFC02E5F3F4FE6012796D7FD279673E06A
:10241000D595C7957A95E1F747FF0AC0A52EA40E7A
:10242000C89DA001C99D500D1124241B350B40E00F
:10243000EA2D0A2C000CFF0BE40FF11D47FDFA9565
:10244000E134F1051CF050E4A52EA41A67FD60E00C
:10245000F701E138F10514F0E0E8F0E07E2FFC012F
:10246000D484D426862F062E000C990BFC01EA1B7F
:10247000FB0BDF017F01F7E0EF22FF24E0E8F0E053
:1024800002C0F595E795EA94E2F71E2FB7FD17967F
:1024900003E0B595A7950A95E1F72A0F3B1FE42FB6
:1024A000E77051E001C0550FEA95EAF7E42FE59592
:1024B000E595E5950E2F40E80403800D911D11244C
:1024C0008D5A9C4FC12C0A2C000CBB089924939464
:1024D0002E015524EC2DF0E0EA15FB050CF090C020
:1024E000F9014491F1E03F121DC07C01A12FF901D7
:1024F000862E881AB82DBE0DB71708F078C0B42FF5
:10250000BA2321F0E701B881B52BB883B0E0B595C7
:10251000A795109719F431964491A0E8DFEFED1AD2
:10252000FD0AE8CF31101FC0752E70947C01A12FD9
:10253000F901862E881AB82DBE0DB71708F057C0BE
:10254000B42FBA2321F0E701B881B721B883B0E0F6
:10255000B595A795109719F431964491A0E8DFEF4F
:10256000ED1AFD0AE8CFE3E03E1631F07C01A12F21
:10257000F901862E881A37C0752E7094862E7C013C
:10258000A12FF9018716D8F4B42FBA2359F0E70127
:10259000B881682C6D2460FE02C0B52B02C0B72143
:1025A000E701B883B0E0B595A795109719F4319677
:1025B0004491A0E88394DFEFED1AFD0AE3CFD9241C
:1025C00016C0B42FBA2321F0E701B881B527B8832C
:1025D000B0E0B595A795109719F431964491A0E80D
:1025E000DFEFED1AFD0AB82DBE0DB71750F3550FEA
:1025F00019F480589F4F51E0C394240D351D6ACFC4
:10260000DF91CF911F910F91FF90EF90DF90CF90CE
:10261000BF90AF909F908F907F906F905F904F9002
:102620003F900895FC0167FD55C0403408F052C04A
:102630009785342F3770542F569556955695A62F5B
:10264000B0E09230D1F4242F25952595259540E8CA
:102650002403F0011124E60FF11D67FDFA95ED5AF0
:10266000FC4F808190E0032E02C0959587950A94D7
:10267000E2F78095982F91700AC0933041F48485D9
:102680008170462740954170841303C013C0911197
:1026900011C080E8589FA00DB11D1124AD5ABC4F48
:1026A00081E090E001C0880F3A95EAF780959C910F
:1026B00089230FC040E8549FA00DB11D1124AD5ACD
:1026C000BC4F81E090E001C0880F3A95EAF79C91F9
:1026D000892B8C930895CF92DF92EF92FF920F9304
:1026E0001F93CF93DF936C01E62EC42F10E0040FED
:1026F000111DF62EF20E8C2F90E08017910764F4D6
:10270000DE2DDF1539F04C2F6D2FC6010E941213FC
:10271000DF5FF7CFCF5FEFCFDF91CF911F910F91A9
:10272000FF90EF90DF90CF9008956F927F928F92FD
:102730009F92AF92BF92CF92DF92EF92FF920F9350
:102740001F93CF93DF93EC016A3019F428859E81A3
:10275000A5C06D3009F4A8C01E81EA84A9849F84B5
:102760008FE38E150CF483C08F8190E00197189F42
:102770009001199F300D1124C9018A0D911DA7FCEC
:102780009A95181619060CF072C08885819FC001B1
:1027900011248E0D911DE7FC9A95181619060CF060
:1027A00066C0B12CC62ED12CEB2D0B2C000CFF0BD0
:1027B0008F8190E0E817F9070CF058C00197E817EF
:1027C000F90779F0C89E9001C99E300DD89E300D52
:1027D0001124E20FF31F8D859E85E80FF91F849069
:1027E00001C0812C7A2CB19E700C1124F12C6B2C21
:1027F0006A0C888590E02F2D0F2C000C330B2817C6
:10280000390794F580FE14C0113039F44F2D4E0D68
:10281000662DCE010E94121324C0012F212F4E2DB0
:10282000F19E400D1124672DCE010E946B1319C03B
:1028300088899F858917A9F08F87113039F44F2D2A
:102840004E0D662DCE010E9412130AC0012F212FBA
:102850004E2DF19E400D1124672DCE010E946B1369
:102860009F868694F394C5CFB3949ECF9F862E8186
:102870003F818985329F800D112489879D8199230D
:1028800099F0082E000C990B40E850E0239F401966
:1028900051091124481759073CF498858A85299FC6
:1028A000800D11248A87198681E090E0DF91CF9115
:1028B0001F910F91FF90EF90DF90CF90BF90AF905E
:1028C0009F908F907F906F9008958EBD00000DB403
:1028D00007FEFDCF8EB50895E0912D03F0912E03F4
:1028E0009081E0912F03F09130038081981315C0FF
:1028F000E0913103F0913203808198130EC0E09192
:102900003303F09134038081981307C0E0913503BD
:10291000F091360381E02081921380E00895409188
:1029200021025091220220911F0230912002C90100
:10293000019648175907D9F480911D0290911E0203
:10294000BC016F5F7F4F2617370789F460911B0228
:1029500070911C02FB0131968E179F0741F4809104
:10296000190290911A02019668177907D1F04E303A
:102970005105C9F48091190290911A02029799F4B5
:1029800080911B0290911C02039769F480911D02B3
:1029900090911E02049739F481E02530310519F435
:1029A00003C081E0089580E00895109238031092EA
:1029B0003703109218021092170289E090E090936A
:1029C00024028093230210922E0310922D03109262
:1029D000300310922F0310923203109231031092A1
:1029E0003403109233031092360310923503E7E25A
:1029F000F2E0108212821182359683E0EB32F80702
:102A0000C1F70895CF92DF92EF92FF920F931F9339
:102A1000CF93DF931F92CDB7DEB74091DB07509184
:102A2000DC076091DD077091DE072FB7F894809185
:102A3000530790915407A0915507B09156072FBFA7
:102A4000481B590B6A0B7B0B8091DA0790E0A0E0E2
:102A5000B0E00091D3071091D4072091D5073091B1
:102A6000D60784179507A607B70730F40115110597
:102A70002105310509F09EC280E0012B022B032BBA
:102A800009F0D9C20E944E1980918C07882309F45D
:102A9000ADC08091A0078111A9C080919807909145
:102AA0009907E0919D07F0919E07EE0FFF1FE80F39
:102AB000F91F2591349121153105F1F420919C07DE
:102AC000222331F010929E0710929D07FC0112C044
:102AD00010928C0780918B07882341F080E00E9440
:102AE0004E19E0919D07F0919E072DC080E00E9455
:102AF0002D197CC025913491C9019695879596959D
:102B0000879520FF53C0B901B6E076956795BA95D1
:102B1000E1F76F71932F96959695969590518F70DA
:102B2000823081F108F5811117C06B3008F06AE03E
:102B30006093A107E0919D07F0919E073196F09375
:102B40009E07E0939D07EE0FFF1F809198079091DD
:102B50009907E80FF91FCECF813061F740E08BE88D
:102B600097E00E944B11E6CF8330B1F0843011F72B
:102B700080918F07689F602D11246093A807909320
:102B8000A907D8CF80918F07689F602D112460938B
:102B9000A4079093A507CECF80918F07689F602DE3
:102BA00011246093A6079093A707C4CF8F738093D7
:102BB0009F0780918F07839F802D11248093A0070A
:102BC0001092B0071092AF071092AE0781E0809389
:102BD000A207809365071092A30780919D079091AB
:102BE0009E07019690939E0780939D078091A20770
:102BF000882309F4E3C08091A007811103C00E94DB
:102C00002D19DCC081508093A0078091B0078111FD
:102C100046C02091AE073091AF072F5F3F4FC901EB
:102C2000880F991FE091AA07F091AB07E80FF91FF1
:102C300065917491862F87708093B107AB0163E033
:102C4000569547956A95E1F7CA0196958795972F0E
:102C5000969596959093B2078F7390918F07899F61
:102C6000802D11248093B00741704093520330931C
:102C7000AF072093AE078091AC0790E02817390783
:102C800070F02091AD07222339F0821B91099093B7
:102C9000AF078093AE0703C080E00E942D1980919A
:102CA000B00781508093B0078091A30721E0280FDF
:102CB0002093A30740919F073091B207340F809172
:102CC0009707380F30938D076091A607662371F040
:102CD00070E0822F022E000C990B0E94E12580915A
:102CE000A707869F300D112430938D0780918D07A3
:102CF00090E0CB966BE370E00E94E12580938D0716
:102D00003091A10730938E076091A407662381F06C
:102D1000062E000C770B822F022E000C990B0E94BE
:102D2000E1258091A507869F300D112430938E07F1
:102D30006091A8076623A1F0822F220F990B70E003
:102D40000E94E125CB0162E070E00E94E125209124
:102D5000A90790918E07289F900D112490938E07BC
:102D600080918E078A3014F089E002C087FD80E0F0
:102D70004F3319F080938E0702C010928E07F8949B
:102D8000E0918D07F0E0EA5CF44FE491E0935103A9
:102D90008091B30790919007899F802D1124909185
:102DA0008E07899F802D11249091B107899F802DD6
:102DB0001124809363078093640778948091DF07E0
:102DC000882309F48FC08C3020F49CE0E92EE81AA7
:102DD00001C0E12CFF24F394F092BA071092C307CC
:102DE0001092C4073091BC078DE3D82E1D2D131B04
:102DF0001E0D03E0030F2EE4412F63E084EB97E008
:102E000039830E946B1339810CEF030F1D5F202F54
:102E100041E0612F80E50E944E1A202F42E0612F91
:102E200083E00E944E1AF092C307F092C40700910B
:102E3000BC0713E0100FD01ADE0C23E04D2D622FDB
:102E400084EB97E029830E94121329812F5F21359B
:102E5000A9F71D0DFF24FA94F10E23E04F2D622FE8
:102E600084EB97E029830E94121329812F5F21357B
:102E7000A9F7035023E0D20E402F6D2D80E00E9471
:102E8000361A402F6D2D83E50E94361A41E06D2DD4
:102E900083E00E94B81942E06D2D80E50E94B819C8
:102EA000145044E0612F80E50E94B81948E0612F7A
:102EB00083E00E94B81984E08093BD078091BC072D
:102EC000E81A8E2D815C8093BE076091E0077091B7
:102ED000E10784EB97E00E94AC0F8091DF078150FF
:102EE0008093DF078091C0078F5F8093C00703E561
:102EF00013E0C12C0E94A91A82E20E9465148C2D55
:102F00000E94651487E00E94651481E20E946514A6
:102F100080E00E9465148FE70E946514E091C70766
:102F2000F091C80790818091CA07892B8083E09136
:102F3000C507F091C60790818091C90780958923C4
:102F400080837801D12CD7018D917D010E94651479
:102F5000D394B0E8DB12F7CFC39400581F4FE8E0DA
:102F6000CE12C8CF8091B80781110EC080E094E0E6
:102F7000E3E5F3E0DF019C011D9221503040E1F7D1
:102F80001092BD071092BE070E94A2106093D30753
:102F90007093D4078093D5079093D6072091CF07DD
:102FA0003091D007621B730B7093D8076093D707DB
:102FB00080E041C02FB7F894809153079091540757
:102FC000A0915507B09156072FBF2091DA07820FC5
:102FD000911DA11DB11D8093DB079093DC07A09389
:102FE000DD07B093DE078091CB079091CC07A091CD
:102FF000CD07B091CE070196A11DB11D8093CB07DF
:103000009093CC07A093CD07B093CE071092D3072F
:103010001092D4071092D5071092D6070E94A210E2
:103020006093CF077093D0078093D1079093D20716
:103030000E94CA1A81E00F90DF91CF911F910F91EA
:10304000FF90EF90DF90CF900895FC0180915003A6
:10305000811103C08FEF9FEF08959FB7F89482E02E
:103060008093E9002091F20030E01216130614F468
:1030700021E030E02115310559F0289884E680934D
:103080004F038091F10080838091F200882319F032
:103090009FBFC90108958BE68093E800F9CF2FB751
:1030A000F89483E08093E9009091E800892F807282
:1030B00095FF04C09091F20080E4891B2FBF089512
:1030C00080915B0781110DC082E08093570784E0F7
:1030D0008093580710925A071092590781E0809305
:1030E0005B0787E597E00895CF93DF93EC01888134
:1030F0008B3008F08AE08093A10740E06A818BE87A
:1031000097E00E944B112E8180918F079C81989FA0
:10311000902D11249093A4072093A5072A859885C4
:10312000989F902D11249093A6072093A7072E8592
:103130009C85989F902D11249093A8072093A90710
:103140009A89288920939F07989F802D1124809326
:10315000A0071092B0071092AF071092AE0781E05F
:103160008093A207809365071092A307DF91CF9108
:1031700008958F929F92AF92BF920F931F93CF9318
:10318000DF93CDB7DEB7A1970FB6F894DEBF0FBEC1
:10319000CDBF19A2423008F44AE08E010F5D1F4FE7
:1031A000842E912CA12CB12CA50194010E94A42560
:1031B000E62FB901CA0101501109EA3014F4E05DAB
:1031C00001C0E95CD801EC93232B242B252B61F75C
:1031D000B80184EB97E00E94D00FA1960FB6F89447
:1031E000DEBF0FBECDBFDF91CF911F910F91BF907A
:1031F000AF909F908F900895CF92DF92EF92FF92C1
:10320000CF93DF936B017C01E091B407F091B50798
:103210000190F081E02D6DE284EB97E00995EC01DF
:1032200066277727CB016C197D098E099F094AE033
:103230000E94B9188C0F9D1FDF91CF91FF90EF90E6
:10324000DF90CF900895BC01990F880B990B97FDE3
:103250000C94FC184AE00C94B91890E0FC01EA596F
:10326000F84F14AE12AEDC01AA0FBB1FA757B84F20
:1032700096961C921E92959715AEFC01EC59F84F4C
:103280001082FC01ED59F84F1082FC01EB59F84F08
:10329000108210929900109298000895AF92BF92F8
:1032A000CF92DF92EF92FF920F931F93CF93DF9312
:1032B000C82ED12CE601CA59D84F9DA1992309F4F3
:1032C0004CC07E019FEFE91AF90AF70195A191110F
:1032D00044C09EA58601000F111F0A59184FF8011E
:1032E00034A525A5E32FF22FE90FF11DE90FF11DFC
:1032F000259134912F3FFFEF3F0711F41DA22DC000
:1033000039ABF601EE0FFF1FE059F84F3327220FBC
:10331000331F05A0F6A1E02DE20FF31FA590B49096
:10332000811117C00E942D19F801B3AAA2AAF601B3
:10333000EE0FFF1FE858F84F16A215A281E0F70123
:1033400085A389E08BAF1EAEFE017B9615A2329657
:1033500015A229968DA18F5F8DA3DF91CF911F912B
:103360000F91FF90EF90DF90CF90BF90AF900895B6
:10337000AF92BF92CF92DF92EF92FF920F931F9383
:10338000CF93DF93182F062FC1E0D3E08AEFD82E1A
:103390009EEFE92E842F8470C82E842F8270B82E61
:1033A000842F8870A82E4170F42E8C2F880F8F5F89
:1033B000E80ECC2081F04D2F400F6C2F610F84EB75
:1033C00097E00E9412134C2F400F6D2F610F84EB7A
:1033D00097E00E941213BB2081F0402F4D1B6C2FF1
:1033E000610F84EB97E00E941213402F4C1B6D2F4E
:1033F000610F84EB97E00E941213AA2081F04C2FFA
:10340000400F612F6D1B84EB97E00E9412134D2F2C
:10341000400F612F6C1B84EB97E00E941213FF207A
:1034200081F0402F4C1B612F6D1B84EB97E00E94B5
:103430001213402F4D1B612F6C1B84EB97E00E94F1
:103440001213CD1744F4E7FC04C0D150D394D394A5
:10345000ED0CCF5FAACFDF91CF911F910F91FF901D
:10346000EF90DF90CF90BF90AF9008950F931F9390
:10347000CF93DF93182F062FD42FC0E0CD174CF435
:103480004C2F400F612F84EB97E00E941213CF5F07
:10349000F5CFDF91CF911F910F9108959F92AF9239
:1034A000BF92CF92DF92EF92FF920F931F93CF9331
:1034B000DF93F82EE62EB22E03E0020FD0E0C3E039
:1034C0008AEFC82E1EEF842F8170982EAA24A39411
:1034D000A20E4270D42EDF5F802F8B19180F992017
:1034E00081F04C2F440F4A0D6E2D6C1B8D2F8F0DCC
:1034F0000E94361A402F6E2D6D1B8C2F8F0D0E944F
:10350000361ADD2081F04C2F440F4A0D6E2D6C1BB6
:103510008F2D8D1B0E94361A402F6E2D6D1B8F2D07
:103520008C1B0E94361ADC1744F417FD04C0C150EE
:10353000C394C3941C0D0E5FCECFDF91CF911F912A
:103540000F91FF90EF90DF90CF90BF90AF909F9042
:103550000895CF93DF93E5ECF7E0C081D1819881A6
:10356000A9ECB7E08C91892B8883C091C707D091D3
:10357000C80798818091CA07809589238883019024
:10358000F081E02D90818C91809589238083DF915B
:10359000CF910895CF92DF92EF92FF920F931F93F6
:1035A000CF93DF93C0E7D7E007E717E0FF24FA9453
:1035B00096E0E92EE00E62E088810E946610288184
:1035C00030E0F901E354F44F8491F901E256F44FED
:1035D000C490F901E158F44FD490DD2071F08111CD
:1035E0000E94F90FED2DF0E0EE0FFF1FEF58F44FA2
:1035F000A591B491EC91EC2131F5F80180818F5FB8
:10360000808360E088810E94661021960F5F1F4FC3
:10361000E012D1CF90917707915080917D079E3F26
:1036200038F49091790791509E3F10F48F5F08C055
:103630008823A1F08F3F19F410927D070FC08FEF00
:1036400080937D070BC0F80180818823F1F2F80197
:103650008F3F11F41082D5CFF082D3CFDF91CF917D
:103660001F910F91FF90EF90DF90CF9008954091C0
:103670004303509144032091410330914203421788
:103680005307B4F49091E8009570E1F39091E8004D
:1036900092FD19C08093F1008091430390914403FF
:1036A00001968F739927892B19F48EEF8093E80088
:1036B0008091430390914403019690934403809337
:1036C000430381E0089580E00895615030F0209137
:1036D000F100FC0120830196F8CF289884E68093BE
:1036E0004F030895789484B5826084BD84B5816069
:1036F00084BD85B5826085BD85B5816085BD8091BD
:103700006E00816080936E00109281008091810034
:10371000826080938100809181008160809381002C
:103720008091800081608093800080919100826010
:1037300080939100809191008160809391008091AD
:1037400090008160809390008091C100846080939C
:10375000C1008091C10082608093C1008091C1004E
:1037600081608093C1008091C30081608093C30019
:103770008091C00082608093C0008091C20081600F
:103780008093C20080917A00846080937A00809157
:103790007A00826080937A0080917A0081608093C1
:1037A0007A0080917A00806880937A0010925003AA
:1037B00010924603109247038091D7008160809356
:1037C000D70080EA8093D80089B5806189BD89B52A
:1037D000826089BD09B400FEFDCF61E070E080E049
:1037E00090E00E94C7108091D8008F7C8061809308
:1037F000D8008091E000807F8093E0008091E1001C
:103800008E7E8093E1008DE08093E200559A209AAD
:10381000EEEFFFE7859194918B3F9C4D19F481E089
:10382000809345030E94D80794E3C92ED12CE12C44
:10383000F12CC5E0D0E022242394312C85E0782EB1
:103840000E940215882309F4F3C38091400381117B
:103850003EC2A0903F03A11006C08091780781303E
:1038600009F4EEC35EC481E0A81235C080917707E9
:10387000813009F444C48EC48A3191050CF071C4BE
:103880008530910509F063C484E690E090933E038F
:1038900080933D038DE991E00E94741880913D036F
:1038A00090913E03092E000CAA0BBB0B40913903EB
:1038B00050913A0360913B0370913C0348175907BC
:1038C0006A077B0744F4D0933E03C0933D0389E825
:1038D00091E00E94741880917C07813009F05BC1EF
:1038E000A11053C00E94D51420913D0330913E0396
:1038F000A901032E000C660B770B80913903909180
:103900003A03A0913B03B0913C03841B950BA60B9B
:10391000B70B8093390390933A03A0933B03B09382
:103920003C0330932C0320932B0310922A03109214
:10393000290310923803109237031DE2812E13E001
:10394000912E00E010E0AA24A3940E940325A70171
:1039500096010E943B25769EF001779EF00D112482
:10396000EB5DFD4F82818111F0CFA282D401ED93F6
:10397000FD934D010B5F1F4F148303830931110524
:1039800021F781E080933F0306C1B1E0AB1203C190
:1039900082E080933F031092380310923703FDE2D8
:1039A0004F2EF3E05F2E820188248394912CB3E0A4
:1039B0006B2EAA24A394D801ED91FC9182818130D1
:1039C00011F562820E940325A70196010E943B2502
:1039D000769EF001779EF00D1124EB5DFD4FDF0127
:1039E000129682818111EECFAC92D801ED93FC93B7
:1039F000B5E0B89DC001B99D900D112494838383D7
:103A0000EFEF8E1A9E0A0E5F1F4FF3E007331F077A
:103A100091F609E112E0F801D2018D919D912D01FD
:103A2000DC0111968C9190E081939193B7E34B1652
:103A3000B3E05B0689F723EA3FE042E050E065E04F
:103A400070E089E192E00E940E230E946C14A82E7F
:103A50008823F9F08091190290911A020A97C9F40B
:103A600080911B0290911C020B9799F480911D028A
:103A700090911E020C9769F480911F029091200290
:103A80000D9739F480912102909122020E9709F44A
:103A9000EBC30E948F148111BBC340911902509156
:103AA0001A0220911B0230911C0260911D0270913C
:103AB0001E024217530721F44617570709F4FDC3A6
:103AC0002617370709F02AC4E0911F02F09120025F
:103AD0002E173F0709F038C5E0912102F09122022C
:103AE0002E173F0709F4F1C3AA2009F458C4209106
:103AF0002B0330912C0346E0429FC001439F900D61
:103B0000112490932A0380932903092E000CAA0BF9
:103B1000BB0B4091390350913A0360913B03709184
:103B20003C03840F951FA61FB71F80933903909302
:103B30003A03A0933B03B0933C0384E090E090935E
:103B40002402809323028090390390903A03A0903E
:103B50003B03B0903C03682D80E090E00E94192563
:103B60009927B7FC9A958B2D7A2D692D81E090E0ED
:103B70000E941925B501992777FD9095892F82E03C
:103B800090E00E9419256B2D77278827992783E0DD
:103B900090E00E94192580917D07813009F097C03F
:103BA00081E691E00E94741819E10E9402158823B1
:103BB000E1F31093BE07EDE2E093BD0769E97AE017
:103BC00084EB97E00E94E50FFDE2F093BE0769E801
:103BD0007AE084EB97E00E94E50F67E77AE084EBF8
:103BE00097E00E94E50F64E67AE084EB97E00E949C
:103BF000E50F80917B07813019F40E94D80767C0D8
:103C000080917807813009F45EC080917A07813015
:103C100009F459C080917707813009F454C080912C
:103C20007907813009F44FC080917C07813009F019
:103C3000BCCF0E9402158823E1F31092BE071092B8
:103C4000BD076DE47AE084EB97E00E94E50F64E342
:103C50007AE084EB97E00E94E50F6BE17AE084EB79
:103C600097E00E94E50F67E07AE084EB97E00E941E
:103C7000E50F68EF79E084EB97E00E94E50F66EED0
:103C800079E084EB97E00E94E50F6DEC79E084EB3E
:103C900097E00E94E50F6BEB79E084EB97E00E94E0
:103CA000E50F62EA79E084EB97E00E94E50F62E8B5
:103CB00079E084EB97E00E94E50F80917C078130EA
:103CC00009F0B7CF72CF8DE491E00E947418809113
:103CD000390390913A03A0913B03B0913C030597BF
:103CE000A105B105A4F580913F03811130C089E39E
:103CF00091E00E94741819E10E9402158823E1F3F3
:103D00001093BE072EE12093BD0761E779E084EBB5
:103D100097E00E94E50F8DE28093BE0761E679E0AF
:103D200084EB97E00E94E50F65E579E084EB97E08E
:103D30000E94E50F80917B07813019F40E94D8071B
:103D400006C080917C078130B9F60E944F078091B0
:103D50003D0390913E03092E000CAA0BBB0B409132
:103D6000390350913A0360913B0370913C0348172B
:103D700059076A077B0724F4D0933E03C0933D03A1
:103D800080913F038230A1F581E080934003E09170
:103D90002D03F0912E03838194811816190644F1A6
:103DA000E0912F03F0913003838194811816190656
:103DB000FCF0E0913103F091320383819481181675
:103DC0001906B4F0E0913303F091340383819481B8
:103DD000181619066CF0E0913503F09136038381D3
:103DE00094811816190624F01092400310923F0394
:103DF00080913F03813089F580934003E0912D034A
:103E0000F0912E03838194811816190634F1E09104
:103E10002F03F09130038381948118161906ECF07A
:103E2000E0913103F09132038381948118161906D1
:103E3000A4F0E0913303F091340383819481181648
:103E400019065CF0E0913503F0913603838194818B
:103E50001816190614F0109240031092BE0783E062
:103E60008093BD076DE479E084EB97E00E94AC0F8E
:103E70006091390370913A0380913B0390913C0328
:103E800097FF03C00E94FC1803C04AE00E94B918C3
:103E900087E08093BE0783E08093BD0765E479E007
:103EA00084EB97E00E94AC0F80913D0390913E031C
:103EB0000E942319E0912302F0912402E930F105D8
:103EC00019F40E941D0699C0809117029091180262
:103ED0004497ACF180912D0390912E0340912F03D4
:103EE00050913003DC0113962D913C911497DA0127
:103EF00013968D919C911497280F391FA09131032F
:103F0000B091320313968D919C911497280F391F0D
:103F1000A0913303B091340313968D919C91149723
:103F2000280F391FA0913503B091360313968D9158
:103F30009C911497820F931F181619061CF40E9467
:103F40001D0648C089E18093BE078093BD07E93014
:103F5000F10510F5EB59FF4F0C94F52561E179E07F
:103F600017C067E079E014C066EF78E011C06CEE2E
:103F700078E00EC065EE78E00BC069ED78E008C02F
:103F800069EC78E005C069EB78E002C06CEA78E0A3
:103F900084EB97E00E94E50F89E18093BD0781E201
:103FA0008093BE0766EA78E084EB97E00E94AC0F4E
:103FB00080912B0390912C030E9423196FE978E0E4
:103FC00084EB97E00E94AC0F8091290390912A0323
:103FD0000E942319809117029091180201969093E4
:103FE000180280931702899744F085E291E00E94BD
:103FF0007418109218021092170280913F038111D9
:1040000009C088E38093BE0783E08093BD0761E326
:1040100079E00AC0813061F488E38093BE0783E0D1
:104020008093BD0762E279E084EB97E00E94AC0FD9
:1040300080E090E0892B09F403CC0E940000FECBC5
:1040400080913D0390913E038931910549F482E3CB
:1040500090E090933E0380933D0381EB91E00EC08E
:104060008A319105B4F58530910541F58AE090E0FB
:1040700090933E0380933D0389ED91E00E94741874
:1040800080913D0390913E03092E000CAA0BBB0BBF
:104090004091390350913A0360913B0370913C0386
:1040A000481759076A077B07E4F5D0933E03C0938E
:1040B0003D0389E891E00E94741833C00A9701F724
:1040C00089E190E090933E0380933D0385EC91E07D
:1040D000D5CF8233910549F484E690E090933E0376
:1040E00080933D038DE991E0C9CF8436910541F677
:1040F000D0933E03C0933D0389E891E0BFCF809108
:104100003703909138030197181619062CF0309256
:104110003803209237033EC09093380380933703CF
:1041200039C080917A07813009F0D5CB80913D0369
:1041300090913E038931910509F09ECB8AE090E091
:1041400090933E0380933D0389ED91E0A5CB0A97C0
:1041500009F0A4CBD0933E03C0933D0389E891E0DE
:104160009BCB8233910549F489E190E090933E0323
:1041700080933D0385EC91E08FCB8436910509F067
:104180008DCB82E390E090933E0380933D0381EBDF
:1041900091E082CB80917907813089F48091370357
:1041A000909138030196863091052CF0D093380316
:1041B000C093370304C090933803809337039090E3
:1041C0007B07B1E09B1287CB809137039091380336
:1041D000181619060CF07FCB880F991FFC01E55DBE
:1041E000FC4F008111810115110509F474CB85E79D
:1041F00091E00E947418D80112968C911297823027
:1042000019F412969C9267CB82E0F801828363CB0B
:10421000AA2009F442CC20912B0330912C0342E3D5
:10422000429FC001439F900D112490932A038093D5
:104230002903092E000CAA0BBB0B409139035091A6
:104240003A0360913B0370913C03840F951FA61FB6
:10425000B71F8093390390933A03A0933B03B09325
:104260003C0387E090E06BCC20912B0330912C0332
:104270004AEF429FC001439F900D112490932A035F
:1042800080932903092E000CAA0BBB0B4091390324
:1042900050913A0360913B0370913C03840F951F4A
:1042A000A61FB71F8093390390933A03A0933B0353
:1042B000B0933C0388E090E042CCE0911F02F09183
:1042C00020024E175F0709F0FBCB20912B033091A2
:1042D0002C0349E1429FC001439F900D112490930C
:1042E0002A0380932903092E000CAA0BBB0B4091D3
:1042F000390350913A0360913B0370913C03840F62
:10430000951FA61FB71F8093390390933A03A0937C
:104310003B03B0933C0386E090E011CC4217530777
:1043200009F0E2CBE0911F02F09120026E177F07A7
:1043300009F0DACBA0911F02B0912002E091210296
:10434000F0912202AE17BF0709F0CECB20912B03CC
:1043500030912C0349E0429FC001439F900D1124EE
:1043600090932A0380932903092E000CAA0BBB0B00
:104370004091390350913A0360913B0370913C03A3
:10438000840F951FA61FB71F8093390390933A039C
:10439000A0933B03B0933C0385E090E0D0CB88230F
:1043A00039F180912B0390912C03880F991F880F6E
:1043B000991F90932A0380932903092E000CAA0BBE
:1043C000BB0B4091390350913A0360913B037091CC
:1043D0003C03840F951FA61FB71F8093390390934A
:1043E0003A03A0933B03B0933C0383E090E0A7CB58
:1043F000E9E1F2E081919191A081B1818A179B0757
:1044000029F4A281B3818A179B0771F182E0EF3111
:10441000F80781F74217530709F09BC080911F02EC
:10442000909120026817790709F446C020911F0275
:1044300030912002809121029091220228173907A1
:10444000D9F1D8018D919D918D012D913C918217CB
:10445000930719F40B970CF054C0B2E001321B071C
:1044600081F789E090E06BCB80912B0390912C0336
:104470009C01220F331F820F931F90932A03809376
:104480002903092E000CAA0BBB0B40913903509154
:104490003A0360913B0370913C03840F951FA61F64
:1044A000B71F8093390390933A03A0933B03B093D3
:1044B0003C0382E090E043CB80912B0390912C034E
:1044C000880F991F90932A0380932903092E000CCB
:1044D000AA0BBB0B4091390350913A0360913B0307
:1044E00070913C03840F951FA61FB71F809339035B
:1044F00090933A03A0933B03B0933C0381E090E098
:104500001ECB80912B0390912C0390932A038093D0
:104510002903092E000CAA0BBB0B409139035091C3
:104520003A0360913B0370913C03840F951FA61FD3
:10453000B71F8093390390933A03A0933B03B09342
:104540003C0380E090E0FBCA4217530709F0CCCA55
:10455000F1CE2617370709F074CF68CFE2EEF7E007
:104560001382128288EE93E0A0E0B0E0848395830A
:10457000A683B78388EF91E0918380838FEF9FEFCD
:10458000958784871092B7071092B6078AE092E069
:104590009093B5078093B4070895DC01FB018C91DB
:1045A00090819D9381934150510914161506BCF3D7
:1045B0000895A0E0B0E0EFEDF2E20C947725D82F5B
:1045C000C92F6B018A017901F9010995B80197FF9B
:1045D0000FC0C601F701099597FF02C0C60119C0B7
:1045E000B8018D2F9C2FF701099597FD0EC00FC0C4
:1045F000C601F70109951816190684F3B8018D2F25
:104600009C2FF701099597FD02C0C80102C08D2FAC
:104610009C2FCDB7DEB7E8E00C949325AAE0B0E07C
:10462000E4E1F3E20C946D258C017B015A87498704
:1046300069015195419551095E834D8329853A85DC
:10464000200F311F3A83298337E0E316F10478F510
:1046500089809A8049855A85E49EC001E59E900D27
:10466000F49E900D11247801E80EF91E8E149F041B
:1046700008F077C1340106151705A0F453016985C8
:104680007A85A61AB70AB301C501F601099518166D
:10469000190644F449855A85B501C3010E94CD220B
:1046A0003501E9CF29853A85820E931EDFCFC701F8
:1046B0009695879549855A85849F5001859FB00CB2
:1046C000949FB00C1124A00EB11EB7016150710966
:1046D0007C836B8377E0E716F10409F44CC08B818F
:1046E0009C81849F3001859F700C949F700C1124D5
:1046F000600E711E99E2E916F104A8F1C70123E0EA
:10470000969587952A95E1F7849F4001859F900CA7
:10471000949F900C11241401220C331CA801420D0B
:10472000531DB801680D791D9601C8010E94D92258
:104730002C01A501480D591D919481949108960171
:10474000B501C501880D991D0E94D9225C01B301F4
:10475000680D791D9601A301C301821993090E9476
:10476000D9223C0101C028019601A301B501C20173
:104770000E94D9225C0149855A85B501C8010E9471
:10478000CD2289809A804B815C8169857A85469F9C
:104790009001479F300D569F300D11243A83298395
:1047A0003901600E711E23015401140120E030E034
:1047B0006A147B0408F43FC0B801C5012F83388711
:1047C000F60109952F81388518161906A4F1892B51
:1047D00061F449855A85B501C1010E94CD228985C0
:1047E0009A85280E391E21E030E0E985FA85AE0E63
:1047F000BF1EDECFB801C3012F833887F6010995AC
:10480000A30169857A85461B570B5C834B832F81F7
:10481000388597FD14C0892B61F449855A85B2010A
:10482000C3010E94CD2229853A85421A530A21E00C
:1048300030E06B807C806A147B04E0F60FC0498511
:104840005A85B301C5010E94CD2249855A85A40E1F
:10485000B51E6B807C8021E030E0AACF232B69F568
:10486000E985FA85EE9EC001EF9E900DFE9E900DAB
:1048700011247801E80EF91E8E149F0408F071C00F
:10488000340106151705A0F4530129853A85A21AAB
:10489000B30AB301C501F60109951816190644F4C7
:1048A00049855A85B501C3010E94CD223501E9CF62
:1048B00029853A85820E931EDFCF89819A814D81A9
:1048C0005E81841B950BB801680F791F7A83698319
:1048D0007501E218F308A101401B510BE416F5061F
:1048E0000CF4A7011416150634F4B501641B750BFE
:1048F000C8010E94CD2242018618970849815A8139
:104900004419550989859A85481B590B84169506C3
:1049100008F4A401141615063CF469817A81641B1D
:10492000750BC5010E94CD22E985FA85EE15FF05BC
:1049300048F4C701BF010E9427259601AF01C801B5
:104940000E940E2329853A852815390550F40981DE
:104950001A8108191909C401B9010E9427257B0190
:104960006DCE2A96E2E10C9489258F929F92AF92A8
:10497000BF92CF92DF92EF92FF92CF93DF93EC0141
:10498000688179818A819B81611571058105910515
:1049900021F464E279ED8BE597E02DE133EF41E01E
:1049A00050E00E943B2549015A019B01AC01A7EA56
:1049B000B1E40E945A256B017C01ACEEB4EFA50175
:1049C00094010E946825DC01CB018C0D9D1DAE1D5C
:1049D000BF1DB7FF03C00197A109B0488883998321
:1049E000AA83BB83BC01CD019F77DF91CF91FF905C
:1049F000EF90DF90CF90BF90AF909F908F900895F1
:104A00000E94B52408958DE091E00E94B524089598
:104A100060930D0170930E0180930F01909310012C
:104A20000895F999FECF92BD81BDF89A992780B576
:104A30000895262FF999FECF1FBA92BD81BD20BDE2
:104A40000FB6F894FA9AF99A0FBE01960895AA1B28
:104A5000BB1B51E107C0AA1FBB1FA617B70710F069
:104A6000A61BB70B881F991F5A95A9F7809590959B
:104A7000BC01CD010895052E97FB1EF400940E9401
:104A8000522557FD07D00E94A42507FC03D04EF401
:104A90000C94522550954095309521953F4F4F4F9E
:104AA0005F4F089590958095709561957F4F8F4FDA
:104AB0009F4F08950E94C625A59F900DB49F900D0D
:104AC000A49F800D911D11240895B7FF0C945A25C1
:104AD0000E945A25821B930B08952F923F924F926A
:104AE0005F926F927F928F929F92AF92BF92CF927E
:104AF000DF92EF92FF920F931F93CF93DF93CDB787
:104B0000DEB7CA1BDB0B0FB6F894DEBF0FBECDBFFE
:104B100009942A88398848885F846E847D848C84CF
:104B20009B84AA84B984C884DF80EE80FD800C81D8
:104B30001B81AA81B981CE0FD11D0FB6F894DEBFBB
:104B40000FBECDBFED010895A1E21A2EAA1BBB1B1B
:104B5000FD010DC0AA1FBB1FEE1FFF1FA217B30749
:104B6000E407F50720F0A21BB30BE40BF50B661F5F
:104B7000771F881F991F1A9469F760957095809523
:104B800090959B01AC01BD01CF010895A29FB0019A
:104B9000B39FC001A39F700D811D1124911DB29F71
:104BA000700D811D1124911D0895991B79E004C099
:104BB000991F961708F0961B881F7A95C9F780955C
:104BC000089597FB072E16F4009407D077FD09D0BF
:104BD0000E94272507FC05D03EF4909581959F4FB4
:104BE0000895709561957F4F0895EE0FFF1F059012
:0A4BF000F491E02D0994F894FFCF32
:104BFA00FFFFFFFF00E100000000000001010000CC
:104C0A00000900000000000000010002000000008E
:104C1A000000000200090000000000000003000577
:104C2A000000000000100008000900000000000059
:104C3A00000200FEFF000000000600040009000058
:104C4A0000000000000400FBFF000000003C00061A
:104C5A000009000000000000000400050000000038
:104C6A0000370006000900000000000000010002F1
:104C7A00000000000000000400090000000000001D
:104C8A000001000200000000000600040009000004
:104C9A00000000000001000200000000000E0004F5
:104CAA0000090000000000000001000200000000EE
:104CBA00000C0004000900000000000000010002CE
:104CCA0000000000000A00040009000000000000C3
:104CDA000001000200000000000800040000C1807A
:104CEA0081000000000000003A0B750BFA0B500B14
:104CFA005B0BFE0B1C0C000000009513780F1A06C4
:064D0A0019060D0A00006D
:00000001FF
